{
  "_format": "hh-sol-artifact-1",
  "contractName": "ConsentRegistry",
  "sourceName": "contracts/ConsentRegistry.sol",
  "abi": [
    {
      "anonymous": false,
      "inputs": [
        {
          "indexed": true,
          "internalType": "uint256",
          "name": "id",
          "type": "uint256"
        },
        {
          "indexed": true,
          "internalType": "address",
          "name": "signer",
          "type": "address"
        },
        {
          "indexed": false,
          "internalType": "uint256",
          "name": "timestamp",
          "type": "uint256"
        },
        {
          "indexed": false,
          "internalType": "bytes32",
          "name": "dataHash",
          "type": "bytes32"
        },
        {
          "indexed": false,
          "internalType": "string",
          "name": "ipfsCid",
          "type": "string"
        }
      ],
      "name": "ConsentRecorded",
      "type": "event"
    },
    {
      "inputs": [
        {
          "internalType": "uint256",
          "name": "",
          "type": "uint256"
        }
      ],
      "name": "consents",
      "outputs": [
        {
          "internalType": "address",
          "name": "signer",
          "type": "address"
        },
        {
          "internalType": "bytes",
          "name": "signature",
          "type": "bytes"
        },
        {
          "internalType": "uint256",
          "name": "timestamp",
          "type": "uint256"
        },
        {
          "internalType": "bytes32",
          "name": "dataHash",
          "type": "bytes32"
        },
        {
          "internalType": "string",
          "name": "ipfsCid",
          "type": "string"
        }
      ],
      "stateMutability": "view",
      "type": "function"
    },
    {
      "inputs": [],
      "name": "nextId",
      "outputs": [
        {
          "internalType": "uint256",
          "name": "",
          "type": "uint256"
        }
      ],
      "stateMutability": "view",
      "type": "function"
    },
    {
      "inputs": [
        {
          "internalType": "address",
          "name": "signer",
          "type": "address"
        },
        {
          "internalType": "bytes",
          "name": "signature",
          "type": "bytes"
        },
        {
          "internalType": "bytes32",
          "name": "dataHash",
          "type": "bytes32"
        },
        {
          "internalType": "string",
          "name": "ipfsCid",
          "type": "string"
        }
      ],
      "name": "recordConsent",
      "outputs": [
        {
          "internalType": "uint256",
          "name": "",
          "type": "uint256"
        }
      ],
      "stateMutability": "nonpayable",
      "type": "function"
    }
  ],
  "bytecode": "0x608060405234801561001057600080fd5b50610d68806100206000396000f3fe608060405234801561001057600080fd5b50600436106100415760003560e01c806361b8ce8c14610046578063ccf97a2314610064578063d557d53a14610094575b600080fd5b61004e6100c8565b60405161005b919061042d565b60405180910390f35b61007e600480360381019061007991906105a1565b6100ce565b60405161008b919061042d565b60405180910390f35b6100ae60048036038101906100a99190610674565b6102ae565b6040516100bf9594939291906107a4565b60405180910390f35b60005481565b6000806000808154809291906100e390610834565b9190505590506040518060a001604052808973ffffffffffffffffffffffffffffffffffffffff16815260200188888080601f016020809104026020016040519081016040528093929190818152602001838380828437600081840152601f19601f82011690508083019250505050505050815260200142815260200186815260200185858080601f016020809104026020016040519081016040528093929190818152602001838380828437600081840152601f19601f820116905080830192505050505050508152506001600083815260200190815260200160002060008201518160000160006101000a81548173ffffffffffffffffffffffffffffffffffffffff021916908373ffffffffffffffffffffffffffffffffffffffff160217905550602082015181600101908161021d9190610ab7565b50604082015181600201556060820151816003015560808201518160040190816102479190610be4565b509050508773ffffffffffffffffffffffffffffffffffffffff16817fa4090881416b8de88548b94a78cd3790816a3a5970eb45f30067d7a519f640ab428888886040516102989493929190610cf2565b60405180910390a3809150509695505050505050565b60016020528060005260406000206000915090508060000160009054906101000a900473ffffffffffffffffffffffffffffffffffffffff16908060010180546102f7906108da565b80601f0160208091040260200160405190810160405280929190818152602001828054610323906108da565b80156103705780601f1061034557610100808354040283529160200191610370565b820191906000526020600020905b81548152906001019060200180831161035357829003601f168201915b505050505090806002015490806003015490806004018054610391906108da565b80601f01602080910402602001604051908101604052809291908181526020018280546103bd906108da565b801561040a5780601f106103df5761010080835404028352916020019161040a565b820191906000526020600020905b8154815290600101906020018083116103ed57829003601f168201915b5050505050905085565b6000819050919050565b61042781610414565b82525050565b6000602082019050610442600083018461041e565b92915050565b600080fd5b600080fd5b600073ffffffffffffffffffffffffffffffffffffffff82169050919050565b600061047d82610452565b9050919050565b61048d81610472565b811461049857600080fd5b50565b6000813590506104aa81610484565b92915050565b600080fd5b600080fd5b600080fd5b60008083601f8401126104d5576104d46104b0565b5b8235905067ffffffffffffffff8111156104f2576104f16104b5565b5b60208301915083600182028301111561050e5761050d6104ba565b5b9250929050565b6000819050919050565b61052881610515565b811461053357600080fd5b50565b6000813590506105458161051f565b92915050565b60008083601f840112610561576105606104b0565b5b8235905067ffffffffffffffff81111561057e5761057d6104b5565b5b60208301915083600182028301111561059a576105996104ba565b5b9250929050565b600080600080600080608087890312156105be576105bd610448565b5b60006105cc89828a0161049b565b965050602087013567ffffffffffffffff8111156105ed576105ec61044d565b5b6105f989828a016104bf565b9550955050604061060c89828a01610536565b935050606087013567ffffffffffffffff81111561062d5761062c61044d565b5b61063989828a0161054b565b92509250509295509295509295565b61065181610414565b811461065c57600080fd5b50565b60008135905061066e81610648565b92915050565b60006020828403121561068a57610689610448565b5b60006106988482850161065f565b91505092915050565b6106aa81610472565b82525050565b600081519050919050565b600082825260208201905092915050565b60005b838110156106ea5780820151818401526020810190506106cf565b60008484015250505050565b6000601f19601f8301169050919050565b6000610712826106b0565b61071c81856106bb565b935061072c8185602086016106cc565b610735816106f6565b840191505092915050565b61074981610515565b82525050565b600081519050919050565b600082825260208201905092915050565b60006107768261074f565b610780818561075a565b93506107908185602086016106cc565b610799816106f6565b840191505092915050565b600060a0820190506107b960008301886106a1565b81810360208301526107cb8187610707565b90506107da604083018661041e565b6107e76060830185610740565b81810360808301526107f9818461076b565b90509695505050505050565b7f4e487b7100000000000000000000000000000000000000000000000000000000600052601160045260246000fd5b600061083f82610414565b91507fffffffffffffffffffffffffffffffffffffffffffffffffffffffffffffffff820361087157610870610805565b5b600182019050919050565b7f4e487b7100000000000000000000000000000000000000000000000000000000600052604160045260246000fd5b7f4e487b7100000000000000000000000000000000000000000000000000000000600052602260045260246000fd5b600060028204905060018216806108f257607f821691505b602082108103610905576109046108ab565b5b50919050565b60008190508160005260206000209050919050565b60006020601f8301049050919050565b600082821b905092915050565b60006008830261096d7fffffffffffffffffffffffffffffffffffffffffffffffffffffffffffffffff82610930565b6109778683610930565b95508019841693508086168417925050509392505050565b6000819050919050565b60006109b46109af6109aa84610414565b61098f565b610414565b9050919050565b6000819050919050565b6109ce83610999565b6109e26109da826109bb565b84845461093d565b825550505050565b600090565b6109f76109ea565b610a028184846109c5565b505050565b5b81811015610a2657610a1b6000826109ef565b600181019050610a08565b5050565b601f821115610a6b57610a3c8161090b565b610a4584610920565b81016020851015610a54578190505b610a68610a6085610920565b830182610a07565b50505b505050565b600082821c905092915050565b6000610a8e60001984600802610a70565b1980831691505092915050565b6000610aa78383610a7d565b9150826002028217905092915050565b610ac0826106b0565b67ffffffffffffffff811115610ad957610ad861087c565b5b610ae382546108da565b610aee828285610a2a565b600060209050601f831160018114610b215760008415610b0f578287015190505b610b198582610a9b565b865550610b81565b601f198416610b2f8661090b565b60005b82811015610b5757848901518255600182019150602085019450602081019050610b32565b86831015610b745784890151610b70601f891682610a7d565b8355505b6001600288020188555050505b505050505050565b60008190508160005260206000209050919050565b601f821115610bdf57610bb081610b89565b610bb984610920565b81016020851015610bc8578190505b610bdc610bd485610920565b830182610a07565b50505b505050565b610bed8261074f565b67ffffffffffffffff811115610c0657610c0561087c565b5b610c1082546108da565b610c1b828285610b9e565b600060209050601f831160018114610c4e5760008415610c3c578287015190505b610c468582610a9b565b865550610cae565b601f198416610c5c86610b89565b60005b82811015610c8457848901518255600182019150602085019450602081019050610c5f565b86831015610ca15784890151610c9d601f891682610a7d565b8355505b6001600288020188555050505b505050505050565b82818337600083830152505050565b6000610cd1838561075a565b9350610cde838584610cb6565b610ce7836106f6565b840190509392505050565b6000606082019050610d07600083018761041e565b610d146020830186610740565b8181036040830152610d27818486610cc5565b90509594505050505056fea26469706673582212203002637271c8d05b7e0a553e3531a35a7dd73a1882fdcc46b4c55db119ee625c64736f6c63430008130033",
  "linkReferences": {},
  "deployedLinkReferences": {}
}